:060000000A128A1100291A
:1002000003138312850103178316880103138316D2
:10021000051085100511851105168516051785171A
:100220000313831287010313831607108710071126
:100230008711071687160313831286010317831687
:100240008901031383160614031383128801031311
:1002500083160810881008118811081203138312DE
:10026000051E442103138312851E4A2103138312A2
:10027000071E502103138312871E56210313831276
:10028000061C5C2165212E2903138312051E4629B5
:10029000850A080003138312851E4C298503080074
:1002A00003138312071E5229870A080003138312BF
:1002B000871E58298703080003138312061C0708AA
:1002C0000313831205078800080003138312031C1D
:0602D00067298808080000
:04400E00C130FF3F7F
:00000001FF
