:060000000A128A1100291A
:1002000003138312850103178316880103138316D2
:10021000051085100511851105168516051785171A
:100220000313831287010313831607108710071126
:100230008711071687160313831286010317831687
:100240008901031383160614031383128801031311
:1002500083160810881008118811081203138312DE
:10026000051E432103138312851E492103138312A4
:10027000071E4F2103138312871E55210313831278
:10028000061C5B212E2903138312051E4529850AAE
:10029000080003138312851E4B29850308000313EE
:1002A0008312071E5129870A080003138312871E31
:1002B00057298703080003138312061C070803133A
:0802C000831205078800080005
:04400E00C130FF3F7F
:00000001FF
