:060000000A128A1100291A
:1002000003138312850103178316880103138316D2
:10021000051485140511851105128512051785171A
:100220000313831287010313831607108710071126
:100230008711071687160313831286010317831687
:1002400089010313831606140713871303138312FC
:100250008801031383160810881086100313831275
:10026000051C3F2103138312851C452103138312B0
:10027000071E4B2103138312871E51212E290313BE
:100280008312051C4129850A080003138312851C6B
:1002900047298503080003138312071E4D29870A87
:0E02A000080003138312871E532987030800EA
:04400E00C130FF3F7F
:00000001FF
