:060000000A128A1100291A
:1002000003138312850103178316880103138316D2
:10021000051085100511851105168516051785171A
:100220000313831287010313831607108710071126
:100230008711071687160313831286010317831687
:100240008901031383160614031383128801031311
:1002500083160810881008118811081203138312DE
:10026000051E452103138312851E4B2103138312A0
:10027000071E512103138312871E57210313831274
:10028000061C5D21061C67212E2903138312051EFF
:100290004729850A080003138312851E4D2985030B
:1002A000080003138312071E5329870A080003134B
:1002B0008312871E59298703080003138312061C23
:1002C0005F2907080313831205078800080003133A
:0A02D0008312031C69298808080046
:04400E00C130FF3F7F
:00000001FF
